{
	"_format": "hh-sol-artifact-1",
	"contractName": "DStorage",
	"sourceName": "block_backend/contracts/DStorage.sol",
	"abi": [
		{
			"inputs": [
				{
					"internalType": "string",
					"name": "_fileHash",
					"type": "string"
				},
				{
					"internalType": "uint256",
					"name": "_fileSize",
					"type": "uint256"
				},
				{
					"internalType": "string",
					"name": "_fileType",
					"type": "string"
				},
				{
					"internalType": "string",
					"name": "_fileName",
					"type": "string"
				},
				{
					"internalType": "string",
					"name": "_fileDescription",
					"type": "string"
				}
			],
			"name": "uploadFile",
			"outputs": [],
			"stateMutability": "nonpayable",
			"type": "function"
		},
		{
			"inputs": [],
			"name": "fileCount",
			"outputs": [
				{
					"internalType": "uint256",
					"name": "",
					"type": "uint256"
				}
			],
			"stateMutability": "view",
			"type": "function"
		},
		{
			"inputs": [
				{
					"internalType": "uint256",
					"name": "",
					"type": "uint256"
				}
			],
			"name": "files",
			"outputs": [
				{
					"internalType": "uint256",
					"name": "fileId",
					"type": "uint256"
				},
				{
					"internalType": "string",
					"name": "fileHash",
					"type": "string"
				},
				{
					"internalType": "uint256",
					"name": "fileSize",
					"type": "uint256"
				},
				{
					"internalType": "string",
					"name": "fileType",
					"type": "string"
				},
				{
					"internalType": "string",
					"name": "fileName",
					"type": "string"
				},
				{
					"internalType": "string",
					"name": "fileDescription",
					"type": "string"
				},
				{
					"internalType": "uint256",
					"name": "uploadTime",
					"type": "uint256"
				},
				{
					"internalType": "address payable",
					"name": "uploader",
					"type": "address"
				}
			],
			"stateMutability": "view",
			"type": "function"
		},
		{
			"inputs": [],
			"name": "getFile",
			"outputs": [
				{
					"internalType": "uint256",
					"name": "",
					"type": "uint256"
				},
				{
					"internalType": "string",
					"name": "",
					"type": "string"
				},
				{
					"internalType": "uint256",
					"name": "",
					"type": "uint256"
				},
				{
					"internalType": "string",
					"name": "",
					"type": "string"
				},
				{
					"internalType": "string",
					"name": "",
					"type": "string"
				},
				{
					"internalType": "string",
					"name": "",
					"type": "string"
				},
				{
					"internalType": "uint256",
					"name": "",
					"type": "uint256"
				},
				{
					"internalType": "address",
					"name": "",
					"type": "address"
				}
			],
			"stateMutability": "view",
			"type": "function"
		},
		{
			"inputs": [],
			"name": "name",
			"outputs": [
				{
					"internalType": "string",
					"name": "",
					"type": "string"
				}
			],
			"stateMutability": "view",
			"type": "function"
		}
	],
	"bytecode": "0x60806040526040518060400160405280600881526020017f4453746f72616765000000000000000000000000000000000000000000000000815250600090816200004a9190620002de565b5060006001553480156200005d57600080fd5b50620003c5565b600081519050919050565b7f4e487b7100000000000000000000000000000000000000000000000000000000600052604160045260246000fd5b7f4e487b7100000000000000000000000000000000000000000000000000000000600052602260045260246000fd5b60006002820490506001821680620000e657607f821691505b602082108103620000fc57620000fb6200009e565b5b50919050565b60008190508160005260206000209050919050565b60006020601f8301049050919050565b600082821b905092915050565b600060088302620001667fffffffffffffffffffffffffffffffffffffffffffffffffffffffffffffffff8262000127565b62000172868362000127565b95508019841693508086168417925050509392505050565b6000819050919050565b6000819050919050565b6000620001bf620001b9620001b3846200018a565b62000194565b6200018a565b9050919050565b6000819050919050565b620001db836200019e565b620001f3620001ea82620001c6565b84845462000134565b825550505050565b600090565b6200020a620001fb565b62000217818484620001d0565b505050565b5b818110156200023f576200023360008262000200565b6001810190506200021d565b5050565b601f8211156200028e57620002588162000102565b620002638462000117565b8101602085101562000273578190505b6200028b620002828562000117565b8301826200021c565b50505b505050565b600082821c905092915050565b6000620002b36000198460080262000293565b1980831691505092915050565b6000620002ce8383620002a0565b9150826002028217905092915050565b620002e98262000064565b67ffffffffffffffff8111156200030557620003046200006f565b5b620003118254620000cd565b6200031e82828562000243565b600060209050601f83116001811462000356576000841562000341578287015190505b6200034d8582620002c0565b865550620003bd565b601f198416620003668662000102565b60005b82811015620003905784890151825560018201915060208501945060208101905062000369565b86831015620003b05784890151620003ac601f891682620002a0565b8355505b6001600288020188555050505b505050505050565b61121280620003d56000396000f3fe608060405234801561001057600080fd5b50600436106100575760003560e01c806306fdde031461005c5780632fa816921461007a57806343953519146100a05780635138241e146100be578063f4c714b4146100da575b600080fd5b610064610112565b60405161007191906109de565b60405180910390f35b6100826101a0565b60405161009799989796959493929190610a5a565b60405180910390f35b6100a86104e4565b6040516100b59190610b03565b60405180910390f35b6100d860048036038101906100d39190610c93565b6104ea565b005b6100f460048036038101906100ef9190610d90565b6106c0565b60405161010999989796959493929190610dde565b60405180910390f35b6000805461011f90610eb6565b80601f016020809104026020016040519081016040528092919081815260200182805461014b90610eb6565b80156101985780601f1061016d57610100808354040283529160200191610198565b820191906000526020600020905b81548152906001019060200180831161017b57829003601f168201915b505050505081565b60006060600060608060606000806000600154600260006001548152602001908152602001600020600101600260006001548152602001908152602001600020600201546002600060015481526020019081526020016000206003016002600060015481526020019081526020016000206004016002600060015481526020019081526020016000206005016002600060015481526020019081526020016000206006015460026000600154815260200190815260200160002060070160009054906101000a900473ffffffffffffffffffffffffffffffffffffffff16600260006001548152602001908152602001600020600801548780546102a390610eb6565b80601f01602080910402602001604051908101604052809291908181526020018280546102cf90610eb6565b801561031c5780601f106102f15761010080835404028352916020019161031c565b820191906000526020600020905b8154815290600101906020018083116102ff57829003601f168201915b5050505050975085805461032f90610eb6565b80601f016020809104026020016040519081016040528092919081815260200182805461035b90610eb6565b80156103a85780601f1061037d576101008083540402835291602001916103a8565b820191906000526020600020905b81548152906001019060200180831161038b57829003601f168201915b505050505095508480546103bb90610eb6565b80601f01602080910402602001604051908101604052809291908181526020018280546103e790610eb6565b80156104345780601f1061040957610100808354040283529160200191610434565b820191906000526020600020905b81548152906001019060200180831161041757829003601f168201915b5050505050945083805461044790610eb6565b80601f016020809104026020016040519081016040528092919081815260200182805461047390610eb6565b80156104c05780601f10610495576101008083540402835291602001916104c0565b820191906000526020600020905b8154815290600101906020018083116104a357829003601f168201915b50505050509350985098509850985098509850985098509850909192939495969798565b60015481565b60008651116104f857600080fd5b600084511161050657600080fd5b600082511161051457600080fd5b600083511161052257600080fd5b600073ffffffffffffffffffffffffffffffffffffffff163373ffffffffffffffffffffffffffffffffffffffff160361055b57600080fd5b6000851161056857600080fd5b6001600081548092919061057b90610f16565b919050555060405180610120016040528060015481526020018781526020018681526020018581526020018481526020018381526020014281526020013373ffffffffffffffffffffffffffffffffffffffff1681526020018281525060026000600154815260200190815260200160002060008201518160000155602082015181600101908161060c919061110a565b5060408201518160020155606082015181600301908161062c919061110a565b506080820151816004019081610642919061110a565b5060a0820151816005019081610658919061110a565b5060c0820151816006015560e08201518160070160006101000a81548173ffffffffffffffffffffffffffffffffffffffff021916908373ffffffffffffffffffffffffffffffffffffffff1602179055506101008201518160080155905050505050505050565b60026020528060005260406000206000915090508060000154908060010180546106e990610eb6565b80601f016020809104026020016040519081016040528092919081815260200182805461071590610eb6565b80156107625780601f1061073757610100808354040283529160200191610762565b820191906000526020600020905b81548152906001019060200180831161074557829003601f168201915b50505050509080600201549080600301805461077d90610eb6565b80601f01602080910402602001604051908101604052809291908181526020018280546107a990610eb6565b80156107f65780601f106107cb576101008083540402835291602001916107f6565b820191906000526020600020905b8154815290600101906020018083116107d957829003601f168201915b50505050509080600401805461080b90610eb6565b80601f016020809104026020016040519081016040528092919081815260200182805461083790610eb6565b80156108845780601f1061085957610100808354040283529160200191610884565b820191906000526020600020905b81548152906001019060200180831161086757829003601f168201915b50505050509080600501805461089990610eb6565b80601f01602080910402602001604051908101604052809291908181526020018280546108c590610eb6565b80156109125780601f106108e757610100808354040283529160200191610912565b820191906000526020600020905b8154815290600101906020018083116108f557829003601f168201915b5050505050908060060154908060070160009054906101000a900473ffffffffffffffffffffffffffffffffffffffff16908060080154905089565b600081519050919050565b600082825260208201905092915050565b60005b8381101561098857808201518184015260208101905061096d565b60008484015250505050565b6000601f19601f8301169050919050565b60006109b08261094e565b6109ba8185610959565b93506109ca81856020860161096a565b6109d381610994565b840191505092915050565b600060208201905081810360008301526109f881846109a5565b905092915050565b6000819050919050565b610a1381610a00565b82525050565b600073ffffffffffffffffffffffffffffffffffffffff82169050919050565b6000610a4482610a19565b9050919050565b610a5481610a39565b82525050565b600061012082019050610a70600083018c610a0a565b8181036020830152610a82818b6109a5565b9050610a91604083018a610a0a565b8181036060830152610aa381896109a5565b90508181036080830152610ab781886109a5565b905081810360a0830152610acb81876109a5565b9050610ada60c0830186610a0a565b610ae760e0830185610a4b565b610af5610100830184610a0a565b9a9950505050505050505050565b6000602082019050610b186000830184610a0a565b92915050565b6000604051905090565b600080fd5b600080fd5b600080fd5b600080fd5b7f4e487b7100000000000000000000000000000000000000000000000000000000600052604160045260246000fd5b610b7482610994565b810181811067ffffffffffffffff82111715610b9357610b92610b3c565b5b80604052505050565b6000610ba6610b1e565b9050610bb28282610b6b565b919050565b600067ffffffffffffffff821115610bd257610bd1610b3c565b5b610bdb82610994565b9050602081019050919050565b82818337600083830152505050565b6000610c0a610c0584610bb7565b610b9c565b905082815260208101848484011115610c2657610c25610b37565b5b610c31848285610be8565b509392505050565b600082601f830112610c4e57610c4d610b32565b5b8135610c5e848260208601610bf7565b91505092915050565b610c7081610a00565b8114610c7b57600080fd5b50565b600081359050610c8d81610c67565b92915050565b60008060008060008060c08789031215610cb057610caf610b28565b5b600087013567ffffffffffffffff811115610cce57610ccd610b2d565b5b610cda89828a01610c39565b9650506020610ceb89828a01610c7e565b955050604087013567ffffffffffffffff811115610d0c57610d0b610b2d565b5b610d1889828a01610c39565b945050606087013567ffffffffffffffff811115610d3957610d38610b2d565b5b610d4589828a01610c39565b935050608087013567ffffffffffffffff811115610d6657610d65610b2d565b5b610d7289828a01610c39565b92505060a0610d8389828a01610c7e565b9150509295509295509295565b600060208284031215610da657610da5610b28565b5b6000610db484828501610c7e565b91505092915050565b6000610dc882610a19565b9050919050565b610dd881610dbd565b82525050565b600061012082019050610df4600083018c610a0a565b8181036020830152610e06818b6109a5565b9050610e15604083018a610a0a565b8181036060830152610e2781896109a5565b90508181036080830152610e3b81886109a5565b905081810360a0830152610e4f81876109a5565b9050610e5e60c0830186610a0a565b610e6b60e0830185610dcf565b610e79610100830184610a0a565b9a9950505050505050505050565b7f4e487b7100000000000000000000000000000000000000000000000000000000600052602260045260246000fd5b60006002820490506001821680610ece57607f821691505b602082108103610ee157610ee0610e87565b5b50919050565b7f4e487b7100000000000000000000000000000000000000000000000000000000600052601160045260246000fd5b6000610f2182610a00565b91507fffffffffffffffffffffffffffffffffffffffffffffffffffffffffffffffff8203610f5357610f52610ee7565b5b600182019050919050565b60008190508160005260206000209050919050565b60006020601f8301049050919050565b600082821b905092915050565b600060088302610fc07fffffffffffffffffffffffffffffffffffffffffffffffffffffffffffffffff82610f83565b610fca8683610f83565b95508019841693508086168417925050509392505050565b6000819050919050565b6000611007611002610ffd84610a00565b610fe2565b610a00565b9050919050565b6000819050919050565b61102183610fec565b61103561102d8261100e565b848454610f90565b825550505050565b600090565b61104a61103d565b611055818484611018565b505050565b5b818110156110795761106e600082611042565b60018101905061105b565b5050565b601f8211156110be5761108f81610f5e565b61109884610f73565b810160208510156110a7578190505b6110bb6110b385610f73565b83018261105a565b50505b505050565b600082821c905092915050565b60006110e1600019846008026110c3565b1980831691505092915050565b60006110fa83836110d0565b9150826002028217905092915050565b6111138261094e565b67ffffffffffffffff81111561112c5761112b610b3c565b5b6111368254610eb6565b61114182828561107d565b600060209050601f8311600181146111745760008415611162578287015190505b61116c85826110ee565b8655506111d4565b601f19841661118286610f5e565b60005b828110156111aa57848901518255600182019150602085019450602081019050611185565b868310156111c757848901516111c3601f8916826110d0565b8355505b6001600288020188555050505b50505050505056fea2646970667358221220b677a557929ad15dfdd00b4e758ee17206770feb771d86b2db65a22877c332a564736f6c63430008120033",
	"linkReferences": {},
	"deployedLinkReferences": {}
}